000000001                991516118118          000000000389200ROLANDO ALVARO NAVARRETE ROJAS          001001
000000002                991528872535          000000000573000HECTOR MANUEL CARMONA GUTIERREZ         001001
000000003                991583186039          000000000573000GLORIA ESTEFANY GARCIA CARRERA          001001
000000005                991577480489          000000000573000KAREN DE LA CRUZ JULIAN                 001001
000000006                991528872543          000000000584700MARISOL LISSET OLMOS ESTRADA            001001
000000007                991517308757          000000000584700IDANIA DRUCILA BASTIDA SANCHEZ          001001
000000008                991593571014          000000000573000AYLIN FERNANDA HERNANDEZ SANCHEZ        001001
000000009                991551113156          000000000480300ROLANDO JAIR NAVARRETE GUTIERREZ        001001
000000010                991561958199          000000000573000DANIELA RODRIGUEZ MEJIA                 001001
000000011                991532767612          000000000573000XOCHITL MARTINEZ LAGUNAS                001001
000000012                991528872551          000000000573000LUIS BRIAN MORENO CORTES                001001
000000013                991506418537          000000000573000YANAHI MONSERRAT ROMERO GOMEZ           001001
000000015                991557560997          000000000573000MONSERRAT MATA HERNANDEZ                001001
000000016                991525228473          000000000573000GABRIELA GUADALUPE PEREZ LUNA           001001
000000017                991511193043          000000000573000ALAN YAEL NAVARRETE GUTIERREZ           001001
000000018                991523207580          000000000573000DIANA AMAIRANI ROMERO HURTADO           001001
000000019                991513101087          000000000573000ORIANA AGUILAR LOPEZ                    001001
000000023                991504530083          000000000473800JANETH ANGELICA RUIS FLORES             001001
000000023                991556985925          000000000573000MIRIAM PEREZ VASQUEZ                    001001
000000024                991529737693          000000000573000ARACELI COLIN MONTOYA                   001001
000000025                991586276345          000000000573000SAMANTA SOTO DURAN                      001001
000000022                991534185650          000000000450000LISET HERNANDEZ PEREZ                   001001
